:020000041000EA
:1000000000B5324B212058609868022188439860DF
:10001000D860186158612E4B002199600221596106
:100020000121F02299502B49196001219960352056
:1000300000F044F80222904214D00621196600F024
:1000400034F8196E01211966002018661A6600F04E
:100050002CF8196E196E196E052000F02FF8012189
:100060000842F9D1002199601B49196000215960AB
:100070001A491B48016001219960EB211966A021F2
:10008000196600F012F800219960164914480160C1
:100090000121996001BC002800D000471248134993
:1000A000086003C880F30888084703B5996A0420EC
:1000B0000142FBD001200142F8D103BD02B5186610
:1000C0001866FFF7F2FF186E186E02BD00000240BE
:1000D000000000180000070000035F00212200005C
:1000E000F4000018222000A00001001008ED00E03C
:1000F00000000000000000000000000074B24E7A12
:1001000000200420F7010010CB010010CD010010E9
:10011000C9010010C9010010C9010010C901001077
:10012000C9010010C9010010C9010010CF01001061
:10013000C9010010C9010010D1010010D301001045
:10014000C1010010C1010010C1010010C101001067
:10015000C1010010C1010010C1010010C101001057
:10016000C1010010C1010010C1010010C101001047
:10017000C1010010C1010010C1010010C101001037
:10018000C1010010C1010010C1010010C101001027
:10019000C1010010C1010010C1010010C101001017
:1001A000C1010010C1010010C1010010C101001007
:1001B000C1010010C1010010C1010010C1010010F7
:1001C000EFF30580103800BE00BE00BE00BE00BECA
:1001D00000BE00BEF2EB8871485400106C54001051
:1001E0003802001090A31AE71E481F49086006C88D
:1001F00081F3088810471D480068002801D019487D
:10020000F3E70DA40ECC002902D000F012F8F9E7B4
:100210001749184A002000E001C19142FCD116495B
:100220008847164988471649884700BEFDE701C937
:1002300001C29A42FBD370476C540010C0000020EA
:1002400024120020D06500100000042000000420CB
:10025000D0650010001004200010042000000000F1
:10026000704700000000000008ED00E0000000D032
:1002700024120020482300209D2200106506001053
:1002800095220010F8B5C04606480749091A8B1098
:10029000C90FC91810B5491003D0044B002B00D06A
:1002A000984710BD241200202412002000000000F6
:1002B000054B10B5002B03D00449054800E000BFF2
:1002C000FFF7E2FF10BDC04600000000E42200205E
:1002D000BC4F001010B5012916D002290FD00029FB
:1002E00011D1154B154A995C002919D1016880205C
:1002F00009698000C9B219520121995403E0002113
:100300000D4B0E4A995410BD80240B4BA4001A5B70
:100310000068D105C90D595C013201611A53F2E739
:100320000168802080001A5A0C69D105C90D01327C
:100330005C541A52E7E7C046901C002002020000FD
:10034000F0B5C64600B5C24CA54406283AD8C14B04
:1003500080001B589F46C04C200000F07DFBBF4B27
:100360002000196800F0E6FB0321062001F0F2FBF3
:100370000321072001F0EEFB00220121062001F0FD
:1003800003FC00220121072001F0FEFB6C46002344
:10039000AA20237202F076F8852002F073F801207B
:1003A00002F070F8002002F06DF8207A02F06AF88E
:1003B000207A7A38C0B202F065F8552002F062F86F
:1003C00002F0C2F88123DB009D4480BCB846F0BD3A
:1003D000022AF7D98D784B78033A2D0294B20E7821
:1003E0001D43002C00D0B6E0002D00D1BFE08023DB
:1003F0009B009D4200D8CEE0AA2002F043F8862060
:1004000002F040F8002002F03DF8002002F03AF837
:10041000862002F037F8552002F034F802F094F804
:10042000D0E7AA2002F02EF8812002F02BF8152048
:1004300002F028F8002002F025F8894D96242F00BC
:1004400015372E7801353000341902F01BF8E4B26C
:10045000AF42F6D1200002F015F8552002F012F854
:1004600002F072F8AEE7042AACD14A780B78120297
:100470001A438B78C9781B04134309061943774B39
:10048000754819606C4600F0F5FA0023AA20237223
:1004900001F0F8FF822001F0F5FF012001F0F2FFEA
:1004A000002001F0EFFF207A01F0ECFF207A7D3888
:1004B00080E7032A00D085E78C784B7824021C4320
:1004C00080239B009C4200D97CE7002302AF09787F
:1004D0003A0000936048230000F07EFB0500844250
:1004E00000D18CE0AA2001F0CDFF842001F0CAFFEA
:1004F000002001F0C7FF002001F0C4FF842001F0BC
:10050000C1FF552001F0BEFF02F01EF85AE7002A95
:1005100000D157E70023541E4F484A1C0978009326
:10052000230000F04FFB221A531E9A416D4652429F
:10053000AA202A7201F0A6FF832001F0A3FF012068
:1005400001F0A0FF002001F09DFF287A01F09AFF42
:10055000287A7C382EE70123CA1C0093310023003F
:100560003D4800F02FFB844200D045E73CE76C4655
:10057000AA20257201F086FF862001F083FF01206A
:1005800001F080FF002001F07DFF207A01F07AFF6A
:10059000207A79380EE7002302AF310000933A0049
:1005A0002B002D4800F018FB0600854200D023E701
:1005B000C3B29846040AA4B2AA201D1901F062FF32
:1005C000862001F05FFF404601F05CFF200001F053
:1005D00059FF3C007A3DEDB2207801F053FF2378BB
:1005E0000134ED18EDB2E31B9E42F5DC280001F06A
:1005F00049FF552001F046FF01F0A6FFE2E6C3B235
:100600009846040AA4B2AA201E1901F03BFF8420D8
:1006100001F038FF404601F035FF7C3E2000F6B285
:1006200001F030FF002D0AD03C00207801F02AFFB5
:1006300023780134F618F6B2E31BAB42F5DB300049
:1006400001F020FF552001F01DFF01F07DFFB9E60C
:10065000F8FBFFFF3C5100104C1100204811002016
:10066000BC4F0010F0B5DE4657464E464546E0B555
:100670007C4C0026A54401F07BFF042001F098FA91
:100680000321042001F066FA00220121042001F078
:100690007BFA052001F08CFA0321052001F05AFABB
:1006A00000220121052001F06FFA6F4C6F492000F4
:1006B00000F040FA6E4A2000602100F0E1F86B493A
:1006C0006C4800F037FA0321062001F043FA0321B9
:1006D000072001F03FFA00220121062001F054FA20
:1006E00000220121072001F04FFA00239846994685
:1006F0000093614B00249B468023DB0000270025EC
:100700009A46642001F038FF831C2FD0C4B2062D16
:1007100023D85B46AD005B599F46642001F02CFF57
:10072000831C79D0C3B29946009464204C44E7B24C
:1007300001F022FF831C5CD0C4B24B4626021E434C
:100740003F19B6B26420FFB256455AD901F014FFE2
:10075000831C6ED000239846C4B2AA3C6420654234
:100760006541002401F008FF831CCFD1002D43D147
:10077000642001F001FF831CFAD0C4B2EDE701F060
:10078000FBFE831C5DD0C4B2D04505DA424602AB05
:100790009C5401239C46E0443F196420FFB2464527
:1007A000EDDC01F0E9FE831C48D0C4B26420A7420E
:1007B00007D101F0E1FE831C46D0C4B2552C07D00E
:1007C000642001F0D9FE831CD7D10024002598E7CE
:1007D0005645F5D83200009802A9FFF7B1FDEFE7C2
:1007E000A1463C0064204C44E7B201F0C5FE831CE6
:1007F000A2D10325012484E7204B01349C42DFD0A1
:100800007FE7002E0DD101F0B7FE831C1FD000231F
:10081000C4B298469946C9E72700009402250124EE
:100820006FE701F0A9FE831C17D00023C4B29846DD
:10083000AAE7002300249846002562E70525012445
:100840005FE7042501245CE70625012459E700231E
:10085000052598469946012453E700230425984628
:1008600001244EE7F4FBFFFF54110020A086010095
:10087000D50200104C11002058510010E90300006F
:1008800070B50D4C0500041B63425C410B4BE0004E
:100890001A5028000A00012100F074F92B68084A58
:1008A000173420001A63074900F076FE012120006A
:1008B00000F03AFE70BDC0464C110020C822002056
:1008C00064060000C1000020F0B5DE4657464E46E3
:1008D0004546E0B5070083B00CA8019202780020DD
:1008E0003C689B46E066616001219146E166002B11
:1008F00034DD5A1E904680225200944680264025C0
:10090000616F1029FCD00021002801D139798902BA
:1009100040451DD0624611432161A159616B0D42D2
:100920000BD00120636D40424B463B7103B0F0BCDD
:10093000BB46B246A946A046F0BDA16F0029ECD047
:100940002169019B195401308345EDD03C68D7E7FC
:100950004B4601225A4053021943DBE70020E3E7EC
:10096000F0B5DE4657464E46454690460022E0B575
:1009700085B01E000EAB1B7807009B460368DA6645
:1009800001325960DA66002E60DD02795946920222
:10099000924601224A4052029446802291465A468B
:1009A000802403926246BB46002010214746B4468D
:1009B000751EA4000192421B160072427241019EF4
:1009C0005242164002963E5CB04656464246164398
:1009D0003200029E16431E61019E5A6B1142FCD0EA
:1009E0004A469A5801969246002A0AD1A84228D02F
:1009F0000022013092468445DDD1039B5F469B4631
:100A000016E05A6D012290465A6B2242FCD01A6EB3
:100A100042460196002AEBD0039B5F469B46534615
:100A2000002B15D05346DB0712D453461B070FD5B6
:100A30005B463B7105B0F0BCBB46B246A946A0463A
:100A4000F0BD039A002AD3D19046DDE70020EFE7FE
:100A500001204042ECE7C046044BC01A431E9841B7
:100A6000034BC000083018607047C0465411002086
:100A700000E00040F8B5DE4657464E464546834600
:100A8000E0B505200C0001F05FF8060060082100C9
:100A9000801901F0D9FA43009846804407000521E7
:100AA000404601F0D1FA3B1A9A461E4B814670002F
:100AB00080199C4231D81C4901F0C6FA451C5B469E
:100AC0001C680023E366226804335A400233134053
:100AD00080225201A21813605346E3614B46236201
:100AE000434601204F2B03D95021404601F0ACFA78
:100AF000A023E050E36F39005D400C4B2D042D0C1A
:100B0000E3181D6001233000E36601F09DFAF0BC9C
:100B1000BB46B246A946A046F8BD054901F094FA85
:100B2000451CCCE73F420F00809698007C100000E7
:100B300040787D010F4A70B5821A531E9A410E4BC0
:100B4000D20008321A600D4B0D4C1A601500236854
:100B50009D432B1EFAD166240268FF340571D566C9
:100B60001460633C8833FF3CD5639563D450FFF732
:100B700081FF70BD5411002000E0004000F00040F3
:100B800008C0004003680020D86600290DD08021ED
:100B90001868890041400A48014080204001181827
:100BA00001609A600122DA66704741211A684A4062
:100BB00003490A408021490159180A60F2E7C046FA
:100BC0004102000010B582B06C46247C0094FFF70F
:100BD000C7FE02B010BDC04610B582B06C46247C82
:100BE0000094FFF771FE02B010BDC0468023DB0504
:100BF0001868000F7047C0460FB400B5084883B0AE
:100C000001F050FD049B002B07D005A918000191AD
:100C100001F026FB034801F045FD012001F038FBFF
:100C2000D44F0010E44F001070B5EFF3108C72B683
:100C30000D4D2B68002BFCD0BFF35F8F0724CB0832
:100C4000C618C05C01230C40A3401C0004400342B2
:100C500007D118433070BFF35F8F2C608CF310887E
:100C600070BD1000FFF7C8FF2C0100D0F8B5474653
:100C7000CE46884680B5EFF3108C72B61C4D2C68BA
:100C8000002CFCD0BFF35F8F9A4222D807210126A7
:100C9000894602E00132934218D34D463700154091
:100CA000AF40D4080119045D2742F3D110003C4342
:100CB0000C70BFF35F8F00220D4B1A608CF310880D
:100CC00000280EDBC0BCB946B046F8BD012040424A
:100CD000EFE7BFF35F8F00232B608CF310880120B8
:100CE00040424346002BEDD00898FFF785FFC046F1
:100CF0002C0100D0044A1078431CDBB2172B00D91A
:100D0000102313707047C0465C11002010B5064BCD
:100D1000064C82B00100009318221F232000FFF729
:100D2000A5FF02B010BDC046E84F0010601C0020B7
:100D30000021044B044ABFF35F8F02C39342FAD1F0
:100D40007047C046000100D0800100D00A4B1968EE
:100D5000EFF3108072B60A68002AFCD0BFF35F8FF1
:100D60001B68BFF35F8F00221A6080F3108840BFBA
:100D7000002000217047C04620230020F0B5DE4649
:100D800057464E464546E0B587B0EFF3058303224C
:100D900001251A40954091008846A946B34B03921D
:100DA0005C58B34B1D60B34B04934B46B24843634E
:100DB0000823E55E002D37DAA3881BB2002B00DB89
:100DC000ADE0A379002B00D0EEE00823E05E002820
:100DD00020DB430062691B18DB00D3189E68DD68C6
:100DE000731C00D111E1A44801004144826A0B69DF
:100DF000B71A9B1A9F4215D30123026A03988340B6
:100E00001A420FD09C4800F037FB8D4202DCCCD157
:100E10008642CAD940BF07B0F0BCBB46B246A9461D
:100E2000A046F0BD0E61EDE762696B0092465B196A
:100E3000DB009A4453469E68DF6800F01DFB8F423A
:100E4000BADC00D103E1002F00DAE8E05246534655
:100E500052691B699346049A934200D1D9E05246E5
:100E60000821605E5288000459461043984700905C
:100E700001910099019A0B001000134300D1CEE0BC
:100E800013000A00B61A9F41002806DB7A4800F0DA
:100E9000F3FA009E019F36184F4153469E60DF6073
:100EA00000229A5E002A00DA86E7530099186069EA
:100EB000C900411802938B68C9689B46B94200DD9E
:100EC0007AE702D1B34200D976E708239C46A444CE
:100ED000059565462281A446029B2C0006E053003E
:100EE0009918C90041188D68C968AB469B18DB008A
:100EF000C318B94206DC00D1B3E01C000023E25E57
:100F0000002AECDA230064469C4653461A80634666
:100F1000059D1D80A3881BB2002B00DA51E72269D2
:100F2000EFF3108172B61368002BFCD0BFF35F8F14
:100F30000123A7885B42A3803FB22369BFF35F8F81
:100F400000221A6081F31088002F00DA39E72300AD
:100F5000083322009A4666697B00DB19DB00F31830
:100F6000996850468C460824115FDD68002910DB23
:100F7000029306E0AB4244D00023E15E200000294A
:100F800006DB4C006418E4003419E368AB42F1DD81
:100F9000029B078000201F5E1980002FDCDA1400FE
:100FA000A379002B00D110E70023A37126000823AA
:100FB000E15E08364B1C00D12CE70800A2466569AB
:100FC00002E03E004B1C1AD04B005B18DB00EF1810
:100FD0000A008C46E95E7B881BB2002BF1DA012304
:100FE0005B42DC17BB60FC60824205D05346318017
:100FF0001B893B8053461A8160464B1CE4D1544602
:10100000E5E6A3686345B7D9C2E76B1C00D0EAE602
:10101000F8E65B4658461B69984700281BD15346A3
:101020001B8822692381EFF3108372B611680029AF
:10103000FCD0BFF35F8F514662880A8022696580C9
:10104000BFF35F8F0021116083F31088B4E68642FE
:1010500000D8F8E6B0E65B461A685B680092019338
:1010600007E7B34500D848E74CE7C0460423002013
:101070003C7005407D0D00100040054070B52E4CC1
:101080002569002D04D00A212C4800F019FC70BD00
:101090002B4E0321300000F0E5F9E660FFF72AFE51
:1010A000284B03229C46D02322701B061B6801217B
:1010B0006370254B6044A3600F23800020610220F1
:1010C000638063694942A1801980023119864731E2
:1010D0001D83585218315A5275325C399952183260
:1010E0000131995218320131995218320131995215
:1010F000083518329D520231183299521832013196
:1011000099521832013199521832013199521832DC
:10111000013199521832013199520C4B0C49DC6063
:101120000130356200F038FA0121032000F0FCF9AB
:10113000084B1D60A7E7C046601100202023002057
:101140000040054040000034FFFF10000423002051
:101150007D0D001038600540004870476011002088
:10116000F8B51F0008AB1B7804001600002B08D14F
:1011700000F08AF932003B00121A8B41002B00DA92
:1011800052E02269EFF3108072B61368002BFCD096
:10119000BFF35F8F0223E15E63694A005218D200F9
:1011A0009B182269002936DB1D886580BFF35F8F9D
:1011B0000025156080F31088069A9E60DF601A6132
:1011C000079A5A615A8801325204520C101C002AA4
:1011D0001FD082B25880080410432669EFF31087AD
:1011E00072B63268002AFCD0BFF35F8FA2881A80E3
:1011F000A1802369BFF35F8F00221A6087F31088F4
:101200000A4923788C4601329A40E36863441A60A5
:10121000F8BD0120DDE7BFF35F8F0023136080F38B
:10122000108801204042F3E70020F1E73C20000055
:1012300070B501000469EFF3108C72B620680028C5
:10124000FCD0BFF35F8F02200D5E4C69680040192F
:10125000C00024180869002D36DB26884E80BFF3B5
:101260005F8F002606608CF31088E3606388049823
:10127000013320615B0405985B0CA26060611A1C5D
:10128000002B1FD093B22804628018430A69EFF341
:10129000108C72B61368002BFCD0BFF35F8F8B8865
:1012A00023808D800B69BFF35F8F00221A608CF35F
:1012B00010880B7801329A40CB6808498C46634409
:1012C0001A6070BD0122DDE7BFF35F8F002303606A
:1012D0008CF3108801204042F3E7C0463C20000018
:1012E00010B543890A1493421ADD53009B184269D2
:1012F000DB00D3180469EFF3108C72B62268002A61
:10130000FCD0BFF35F8F5A88090494B2090C8A425B
:1013100008D00369BFF35F8F00221A608CF3108836
:10132000002010BD8022120214435C800123026958
:101330008371BFF35F8F002111608CF31088044923
:1013400002788C469340C268012062441360E8E74B
:101350003C20000040787047F0B557464E46DE46C8
:101360004546E0B506000F0085B0EFF305839946CA
:101370008B46002B12D0384900204B6ABB4206D363
:101380008A6ADB1B591E8B41B2424041184305B0AB
:10139000F0BCBB46B246A946A046F0BD2F4B9A46CC
:1013A000DB68984653461B784046039300F064F888
:1013B0004246039B040004339B009B580D001B1AFC
:1013C00039003000001BA941894510DC0DD020BF39
:1013D000214A0020536A5B45D9D3926ADB1B591E10
:1013E0008B41B24240411843D1E78342EFD900F02C
:1013F0004BF832003B00121A8B41002B1ADB002302
:101400000193174B3200009350463B00FFF710FF4B
:10141000011E0FDD104B5A6A5A451BD39B6AB3421B
:1014200016D35046FFF75CFF0B4A0020536A5B451A
:10143000ADD3D2E7084A0020536A5B45A7D300200A
:10144000926ADB1BB24240415A1E934118439EE709
:101450005A45E6D120BFE4E7004005406011002076
:101460004D0D001010B5024A0248FFF7DDFB10BD1C
:1014700004500010641C00200300416A0A00986AAE
:10148000596A8A42FAD17047034B596A0A00986A2E
:10149000596A9142FAD170470040054070B5040086
:1014A0000D00174A536A1900966A536A8B42FAD1A3
:1014B0003000190024184D41AB4216D813D0104B00
:1014C0002A005B6A9D4203D90D494B6A9342FCD3C3
:1014D000934207D10A4A02E0516A994202D1916AC5
:1014E000A142F9D370BDA642E9D9054B5B6A1C0045
:1014F0005A1CEFD0012201246442E5175242E3E76F
:1015000000400540054B064A1360064A13605360CD
:101510009360D360136153619361704780808080D2
:1015200000E400E004E400E01F2318401E3B834079
:10153000002905D0C021044A490053501360704768
:10154000802201498B50FAE700E100E0012282404D
:10155000034B1B6813405A1E9341D8B27047C046D4
:1015600000E100E001238340014A13607047C04658
:1015700000E200E0064B10309B688000C358054A2B
:1015800000209B1A2F229A424041C0B27047C046A9
:1015900000ED00E07811002070B50D00EFF310862B
:1015A00072B60F4A1368002BFCD0BFF35F8F0D4B50
:1015B00010309B6884001B590B4A934203D09D4214
:1015C00001D000F017FC074B9B681D51BFF35F8FE4
:1015D000BFF35F8F0022024B1A6086F3108870BD44
:1015E000240100D000ED00E0C1010010F0B5574625
:1015F0004E46DE464546E0B585B006000091170030
:10160000EFF3108B72B66A4A1368002BFCD0BFF35D
:101610005F8F0025674B5D579A46002D00DAA9E0E1
:101620006B00654C01935B199B009846A146C14431
:101630004B4652469B7910361370604BB6009B6840
:1016400099590B1B2F2B33D95D4B994200D0ACE03D
:10165000019B42469C465B4B6544AD0063535A4B2D
:101660000232A218043B9B1A1B05584A5B0D6519F0
:1016700013436B80564B0121AB80FF23AB71009B62
:10168000EF71AB604B460B4319004C4B9B68995173
:10169000BFF35F8FBFF35F8F0022454B1A608BF360
:1016A000108805B0F0BCBB46B246A946A046F0BDC6
:1016B00001200A008243D3798C46BB4231D845468B
:1016C000130044491B1B5B415943090D3D4B6353B8
:1016D0003D4B02356519043B5B1B1B053B4D5B0D08
:1016E0002B43AA464D466B800425AC465546E04444
:1016F000131F44441B1B1B055B0D1D434B46997177
:1017000000999D8099604946DF71334B0143136016
:10171000BBE75800C01880002018C179B9422FD902
:1017200002000623D356002BF3DA02932B4B6146BB
:101730000393131D9A4604235B429C46E1445046A2
:101740004B461B1A1B055B0D9C46204B957198461A
:101750006346404603439380019B5A199200039BC2
:10176000A418A380029B1C4AA371009B2260E7710E
:10177000A3608AE700F03EFB002553465D574FE724
:10178000908802934005131D9A46031561469C46B6
:101790004046D444634604302018181AE02300055C
:1017A000400D1B0218430390C5E700F023FB4FE7F1
:1017B000240100D0412300207811002000ED00E03A
:1017C000C101001000A1FFFFA811002000E0FFFFF1
:1017D00001BDFFFFAAAA00000148804701BD00002B
:1017E00070B501240443EFF30581EFF3108C72B65A
:1017F000214A1368002BFCD0BFF35F8F1F4B0500FD
:101800001F4AED1A6D416A43120D1E4D8900AE68E4
:1018100052B27658A6421CD00621595691421CD08D
:1018200012215956914222D01E215956914220D060
:101830002A2159560324914210D0134B19781A705B
:101840008171BFF35F8F00220B4B1A608CF31088FD
:1018500070BDAB680D4C5C50EFE7002461000919C6
:1018600089005B18FF21997109499980E5E70124F6
:10187000F4E70224F2E7C046240100D078110020EA
:10188000AAAA000000ED00E041230020C1010010E1
:1018900001BDFFFF10B5084B084C82B0010000935A
:1018A000002205232000FFF7E1F9002801DB1F23B8
:1018B000181A02B010BDC046285000104523002061
:1018C000024B9C466144890001607047400000342F
:1018D00070B5114C114DAC420FD2FF262368002B7E
:1018E0000CD0FFF707FA01002000FFF7E9FFA68000
:1018F000BFF35F8F0834AC42F0D370BDFFF7FAF945
:1019000001002000FFF7DCFF2671BFF35F8F083472
:10191000AC42E3D3F1E7C0461C12002024120020A1
:1019200010B50400FFF7E6F901002000FFF7C8FF3B
:10193000FF232371BFF35F8F10BDC04610B50400B5
:101940000120FFF7E3F9034BC3189B002360BFF3AB
:101950005F8F10BD40000034034B9C4661448900FA
:101960000160BFF35F8F704740000034F8B5DE467A
:101970004E4657464546E0B58B4605000A99180085
:10198000160000F061FB0A9B6C001F02324B6419C9
:101990009C46A4006444636881469F4200D9676006
:1019A0002B1FDBB29846012B30D9C02380229B012C
:1019B000E31812011A60294BAD0059599A460029C3
:1019C0001BD17301E026226853401E40802342460B
:1019D0005B01E3181E60012A30D9802380229B011D
:1019E000E31812011A6053464A4667605A51F0BC28
:1019F000BB46B246A946A046F8BD586900F024FB94
:101A0000013043001B18033BFDD2DAE75B46012B94
:101A1000CBD1C02303229B01E3181A60023AA368CA
:101A20001A42FCD07301E0262268AD0053401E40EC
:101A300080230A4A5B019246E3181E605A462168D9
:101A4000514003220A401A6001225B469A40A36873
:101A50001A42FCD0C1E7C04600800040681C00204C
:101A6000F0B546464F46D646C0B51F00344B44003D
:101A70009C462418A4006444636888461600FF2B23
:101A800002D880235B006360031FDBB29A46012B00
:101A900030D9C02380229B01E31812011A60294B20
:101AA00085005959994600291BD17301E026226807
:101AB00053401E40802352465B01E3181E60012AFA
:101AC00030D9802380229B01E31812011A60802301
:101AD0005B0063604B465F51E0BCBA46B146A84626
:101AE000F0BD586900F0B0FA013043001B18033B09
:101AF000FDD2DAE74346012BCBD1C02303229B0161
:101B0000E3181A60023AA3681A42FCD07301E02677
:101B10002268850053401E4080230A4A5B0191469B
:101B2000E3181E6042462168514003220A401A60B1
:101B3000012342469340A2681342FCD0C1E7C0464D
:101B400000800040681C0020014B8000C058704796
:101B5000681C0020094A83009A1810B514684022B6
:101B6000544080322240064CC000A44663441A60B0
:101B7000044B9C466044416010BDC04604C0014017
:101B800004D0014000400140074B8000C3181B688F
:101B9000C90092000A435A400C231340034A94465A
:101BA000604403607047C04604C0014004D0014057
:101BB0000123D0228340120693629361094A830075
:101BC0009A1811684022514080320A400649C000EC
:101BD0008C4663441A60054B9C4605236044436071
:101BE0007047C04604C0014004D00140004001409D
:101BF000F8B5040021481E0017000D0000F024FA7B
:101C00000100380000F020FA069B36041B031E4337
:101C10002368002B20DB1A4B1A49E3185A1E934104
:101C20008022920194465B421B0B174A1B036344BC
:101C30001360164A13601F000A689743FBD1144BC8
:101C40002560E2182123A06013602368002BFCDAD2
:101C50000823E6601360F8BD3F2322681340AB42BF
:101C6000D9D1A3681B051B0D8342D4D1EE22E368B2
:101C7000D2021340B342CED1EDE7C046001BB700FD
:101C80000040FDBF08C0004000E0004000F0004000
:101C90000430000010B580241C4BE4051C600028B3
:101CA0001AD001231A4C18431A4BDC611A4C4440D9
:101CB0001C62596298628021144BC905196017484B
:101CC00017490860E021C9041960002A07D1802261
:101CD000144B12061A6010BD0E4BD861EBE753018E
:101CE0009B1A9B009A18802312015B049A4209D226
:101CF00013000D490B60074B5A608022094BD20537
:101D00001A60E8E7094B1A00F3E7C04600B0054047
:101D1000D3C007B0008005402D3FF84FFCFF010005
:101D20000820014000A00540DC220020FFFFFF004A
:101D30008023024A9B000B43D3627047008005401A
:101D4000002310B50100988A1B8B984710BDC04630
:101D5000162310B50100188802331B88984710BD60
:101D6000F8B54746CE4680B50F1E18D014239946C5
:101D7000043304000025012698464B461888434644
:101D800021681B88984701C4431E984101350640CD
:101D9000AF42F2D13000C0BCB946B046F8BD012612
:101DA000F8E7C046002370B504000D00988A054985
:101DB0001B8B984703000020002C01DB0130A04062
:101DC0002900984755420000AA23064A1B011360C8
:101DD0008D235B00D3600449044B19605368002BCA
:101DE000FCDA70470040024000B0FA000060024098
:101DF0007047C04610B50148FEF7FEFE4450001083
:101E000070B5074D074EB54209D20024013E761B3E
:101E1000B60808CD984723000134B342F9D170BD0C
:101E2000784F0010B44F0010054B064A06491A605F
:101E3000064A074B1A6010000B689843FBD17047A5
:101E400000E00040BFCDFBFE08C00040FE7F3C002C
:101E500000F00040044BDB6C002B03D18022034BCD
:101E6000D2021A607047C046000011504C20115039
:101E7000044A054B1A60054A1368DB018033FBD125
:101E80007047C046FFFFFF0100F0004008C000405F
:101E90004022034B9A675A671A67DA667047C04652
:101EA00000F0014010B5FEF743FF10BDF8B527491B
:101EB000274C284D641AA6103200302E00D930224B
:101EC0002800920000F0BEF9BC2C3BD830202F2314
:101ED0002C196407204A801BE40F9B1B052B16D985
:101EE0003700002C02D0B300771CEA50001B3319D6
:101EF0009B004108EB18C900C9181A605A600833E2
:101F00009942FAD1012303421CD09843C619B30069
:101F1000EA50731C2F2E15D09B00EA50B31C2E2EB6
:101F200010D09B00EA50F31C2D2E0BD09B00EA50E2
:101F3000331D2C2E06D09B00EA50731D2B2E01D092
:101F40009B00EA50054B9D60F8BDC04600010010A3
:101F5000C001001000000020C101001000ED00E0F1
:101F6000002310B5294C82B0A367FFF72DFF012293
:101F7000274B1A60636C012BFCD10322254B1A609E
:101F8000224A936B012BFCD1013300930121224A99
:101F900022480433FFF72CFE052301210093204A39
:101FA0002048FFF725FE0022022104201E4BFFF7E8
:101FB00057FD0022012105201C4BFFF751FD002297
:101FC000002107201A4BFFF74BFD002200210820BB
:101FD000174BFFF745FD8023DB0000930022002113
:101FE0000920134BFFF7C2FC0022104B00210620F2
:101FF000FFF736FD0420FFF7A7FD0E4900F024F897
:1020000001000020FFF794FE02B010BD00800040E8
:102010003CB0004030B00040002F685900800240C2
:10202000008C864700C00240001BB7004059730770
:10203000006CDC0240420F0001480421014B1847AC
:10204000C0110020611D0010114A936F9B0813D22C
:1020500010665166002905D0FFE7FFE7FFE7516FE3
:10206000106F704704B5002801D00020C04302F073
:1020700043FF002104BDC046F0B5146E556E576F86
:10208000166FFFF7E5FF1466556657671667F0BDD4
:10209000000000D0132370B51D78012D19D014DD78
:1020A0001F48FFF755FE06001E48FFF751FE1E4C65
:1020B00080223100200000F0C5F8022D2DD01B48F1
:1020C000FFF73EFE1A4B186070BD1A4B164CA36406
:1020D000F5E7184B144C23606360A360E360236151
:1020E0006361A361E36123626362A362E3622363CA
:1020F0006363A363E36323646364A364E3642365AA
:102100006365A365E36523666366A366E366236789
:102110006367A367E367A364D1E7064BA364CEE7D5
:102120005344000053460000B01300204C3300001D
:102130001C2300203921001007B5604601880A0AD7
:102140000230DF2AFAD1C9B2820804D3028840885B
:102150000004104300E00068014A5050039007BD9E
:10216000B013002051434343C9188C46110C83B26D
:102170004B4310B4040C614392B280B250436243AB
:102180001C041B0C001910BC59411304120CC0187C
:102190005141614470470000132310B512481C7868
:1021A000FFF7D6FD0100012C0AD003DD80220F4885
:1021B00000F048F80E48FFF7C3FD0E4B186010BD45
:1021C0000A4C5422200000F03DF80B4B6365A365D8
:1021D000E36523666366A366E36623676367A367B5
:1021E000E3672362E361E5E753460000B014002093
:1021F0004C3300001C230020FD21001007B5604671
:1022000001880A0A0230DF2AFAD1C9B2820804D34F
:10221000028840880004104300E00068014A5050E2
:10222000039007BDB014002001480421014B18475A
:10223000D0110020611D0010014B1B6818470000E1
:10224000D0110020014B5B6818470000D01100201E
:1022500010B5002800D110BD00F0DAF9FBE7C04648
:1022600010B5094A0300146884B0002C08D001227C
:1022700000910648524203A9A047012004B010BDB6
:1022800000F010FA0020F9E7D822002051220010B7
:1022900000BEFDE710B5FFF7FBFFC04670B5FFF7C6
:1022A000AFFD074D074EB54209D20024013E761B13
:1022B000B60808CD984723000134B342F9D170BD68
:1022C000B44F0010BC4F0010030010B508001100FF
:1022D0001B68984710BDC046F0B5C64600B5437DA3
:1022E00007000C001600002B46D0002A17DD0B78E3
:1022F0000A2B24D000239846012E13D00125290053
:10230000635C01350A2B26D0B542F8D1464509DC7D
:10231000A419013C23780D3B5A4253413B7580BCC4
:10232000B846F0BD4346E018A419F11A013C3B68D9
:10233000984723780D3B5A4253413B75EFE7037DA5
:10234000002BD7D102210F483B689847012EDFD0E0
:1023500001239846D2E7631E5B5C0D2BD4D08845E1
:1023600004DA4346C91AE0183B6898470221054839
:102370003B68A8469847C7E70368110020009847C4
:10238000CDE7C046D4510010F0B54546DE464E4676
:102390005746E0B583B091461C0080460D00FFF71C
:1023A00073F80023304A12184B41002B02DA012245
:1023B0002E4B52422E4908008A4602F0BDFD07000E
:1023C0006B1C03D1404602F04DFD0500002C27D0C8
:1023D000284E294B1C68002C18D04B46002B21D1CD
:1023E000264B994602E02469002C0FD02368002B6D
:1023F000F9D04B461B68002B01D09C42F3D1200042
:102400002A004146B0472469002CEFD1002F26D185
:10241000280003B0F0BCBB46B246A946A046F0BDBA
:10242000174ED6E7154B99460A239B4602E02469CE
:10243000002CEBD02368002BF9D04B461B68002BF7
:1024400001D0A342F3D12A0041462000B0476B4699
:102450005A462000DA71D91D0122B047E7E75046FD
:1024600002F03AFDD4E7C04640420F00FFFFFF7F75
:102470001C120020D9220010BC1E0020C41E002007
:10248000C9220010F0B5CE46474680B583B06B46F2
:102490000600DD1D2870FEF7F7FF0023194A121809
:1024A0004B41002B02DA0122174B52421749080018
:1024B000884602F041FD164B81461C68002C14D062
:1024C000144F02E02469002C0FD02368002BF9D0B0
:1024D0003B68002B01D09C42F4D12000012229004E
:1024E000FFF7F2FE2469002CEFD14B46002B05D1FB
:1024F000300003B0C0BCB946B046F0BD404602F063
:10250000EBFCF5E740420F00FFFFFF7F1C120020AD
:10251000BC1E0020C41E00200A4A1368002B05D1EF
:102520000CE01A001B691032002B07D08342F8D14F
:10253000002902D118691060196170470029FCD088
:102540001060FAE7BC1E0020084B10B51C68002C78
:1025500006D06368002B04D098472469002CF8D17A
:1025600010BD2469002CF4D1FAE7C046BC1E00203F
:1025700010B500F0CBFA10BDF0B5CE4647460400CA
:1025800080B583B0FEF780FF2600002736184F4144
:10259000002F02DA01261A4F76421A4B1A4D99463D
:1025A00001AB98464B461C68002C03D116E0246909
:1025B000002C13D02B68002B01D09C42F7D1A368CC
:1025C000002BF4D00121404698470028EFDD434618
:1025D000187803B0C0BCB946B046F0BD0B4B5A6A80
:1025E000974207D89B6AB34202D302204042F0E7E9
:1025F0009742FAD101200021FEF750FFD2E7C046F2
:10260000FFFFFF7FBC1E0020C41E002000400540CD
:10261000F0B5CE46474680B583B06B460600DD1D5B
:102620002870FEF731FF0023194A12184B41002B86
:1026300002DA0122174B524217490800884602F07D
:102640007BFC164B81461C68002C14D0144F02E012
:102650002469002C0FD02368002BF9D03B68002B95
:1026600001D09C42F4D1200001222900FFF734FE62
:102670002469002CEFD14B46002B05D1300003B06C
:10268000C0BCB946B046F0BD404602F025FCF5E7B7
:1026900040420F00FFFFFF7F1C120020BC1E0020E5
:1026A000C41E002070B5040002F0DCFB0123010011
:1026B000050001222000FFF767FE084B1C68002C74
:1026C00006D06368002B05D098472469002CF8D108
:1026D000280070BD2469002CF3D1F9E7BC1E00204E
:1026E0007047C0460022014B1A70704742230020F9
:1026F0004B790020FF2B0BD18B79002B08D1CB79A4
:10270000012B05D1082A03D9024B8A7809301A70A7
:102710007047C046422300200120704710B50129B0
:1027200013D112495379107909781B020343002011
:10273000994200D010BD5378012B08D0022BF9D15B
:10274000642200210020FFF7A5FA0120F2E7D378E8
:1027500091781B021943480ADB0501D4012040424D
:102760007F238A05D20F1940FFF71CFB422300206C
:1027700000487047A452001070B5050014000120F5
:10278000012909D153780020012B05D163791279F1
:102790001B021343072B00D070BD21002800024A02
:1027A0009F3301F0A5F9F7E7FC51001001230370F6
:1027B00000487047D85100104B780A781B02134329
:1027C0008A7810B512041A43CB781B06134396225D
:1027D000D200934200D010BD0022012011004042DF
:1027E000FFF7E0FA024B1860024B19607047C046D1
:1027F000581C00205C1C002010B5024B1878FEF716
:10280000B1FE10BD43230020154B70B51A68002A95
:1028100022D0EFF3108172B610680028FCD0BFF30D
:102820005F8F00200F4A596010701B68BFF35F8FE5
:10283000186081F31088002400250B4E3078FEF7D5
:1028400085FE002804D1002400252900200070BD49
:102850003078FEF787FEF8E7FA240025A400ECE7BD
:10286000FC220020442300204323002070B50400F4
:1028700000200E0001F030FA002834D0002001F0D2
:1028800041FA00282FD0FEF7FFFD0023174A121847
:102890004B41002B16DB164D280002F04DFB0028A3
:1028A00021D0002001F018FA00280FD101200021CA
:1028B000404200F055FD03246442280002F00CFB66
:1028C000200070BD01220B4B5242E4E7002001F0D2
:1028D00019FA0028EAD021003200002001F01EFA87
:1028E000041EEAD1E7E703246442E9E740420F000F
:1028F00024230020FFFFFF7F10B5FEF7C5FD002356
:102900000D4A12184B41002B02DA01220B4B5242A6
:102910000B4C200002F010FB00280CD001200021FD
:10292000404200F01DFD002001F01CFA0028F5D106
:10293000200002F0D1FA10BD40420F00FFFFFF7FE0
:1029400024230020F8B5DE46574680B505000C006C
:10295000FEF79AFD0023364A12184B41002B02DA8B
:102960000122344B5242344908008A4602F0E4FA0C
:10297000002803D1C0BCBB46B246F8BD002001F020
:10298000ABF900284AD00026002C43DD2B4B9B4698
:1029900014E0A919002001F0D3F90700012000215B
:1029A000404200F0DDFC002001F0DCF9FEF76CFD98
:1029B000224BF61918605960B4422BDD002001F05B
:1029C000DFF9A71B0200B84200DD3A00002AE0D17F
:1029D00001200021404200F0C3FC002001F0C2F9B8
:1029E000002001F079F9002814D0002001F0C8F986
:1029F0000028E1D1FEF748FD5B460F001A685B68CE
:102A0000002184460E4812184B419F4202D8D3D170
:102A10009445D1D9504602F05FFAABE7002000217F
:102A2000064B18605960504602F056FAA2E7C046BD
:102A300040420F00FFFFFF7F24230020A813002047
:102A400020A1070030B52A4C85B00021200002F0FB
:102A50005BFA00281CD1274B1A68002A16D0EFF326
:102A6000108172B610680028FCD0BFF35F8F01247C
:102A70002148596002781B68D2B20470BFF35F8F9F
:102A80000020186081F31088002A17D005B030BDEF
:102A900001200021404200F063FC002001F032F9E7
:102AA0000500200002F018FA002DEFD0134B1B6830
:102AB000002BEBD0124A10689847E7E7FEF74CFB73
:102AC0000400FEF7E1FCFA220023920012184B41A9
:102AD000002B02DA01220B4B52420121029100210C
:102AE0000191094920000091FEF73AFBCEE7C0466C
:102AF00024230020FC22002044230020581C002016
:102B00005C1C0020FFFFFF7F09280010D02310B5B8
:102B10001B0684B01C68FEF71FFBFEF71BFCA042DF
:102B200002D0002004B010BD294B002100201B78EA
:102B300001F05CFC27480368002B45D00120FEF71C
:102B4000A9FEFF23244C254920701840FEF724FDE0
:102B500020780121FEF7E8FC0520FEF70BFD002898
:102B600024D1082200211E48FFF766FBFEF7F4FA85
:102B70000400FEF789FCFA220023920012184B4150
:102B8000002B02DA0122174B52420121029100214F
:102B90000191154920000091FEF7E2FA0028C0DB00
:102BA00012480121FFF7B8FC0120BBE70120FEF726
:102BB000ADF80B4B01001800FEF7CEFE00220520F9
:102BC0000B49FEF713FDEBE7FEF7AAFEB6E7C0469A
:102BD000685400102423002043230020452A0010BD
:102BE000FC220020FFFFFF7F09280010E0110020D9
:102BF000F927001000487047405300100048704704
:102C0000EC52001010B5040017480378002B20D0B8
:102C1000002C06D1154B16484380063BFF3B038032
:102C200010BD052C1DD8134BA400E05812490123F8
:102C3000013804E001330A800231142B0DD0C25C4C
:102C4000002AF7D1C022DBB25B0092000848134390
:102C5000E5E7112100F01AF8DAE7CA2304489B00DF
:102C6000DDE70020DCE7C0462C230020090400003B
:102C7000941E0020D4520010961E002010B5024869
:102C800000F0D8F810BDC0461423002030B54B1E0C
:102C9000012900D1A7E0664A11780D092C003034D3
:102CA0009F2900D9A2E00470012B00D1BEE00F21C2
:102CB000147821400C003034092900D998E0447080
:102CC000022B00D1B2E054782509290030319F2C25
:102CD00000D990E08170032B00D1A7E00F212140A3
:102CE0000C003034092900D987E0C470042B00D1CE
:102CF0009CE094782509290030319F2C00D97FE091
:102D00000171052B00D191E00F2121400C003034DE
:102D1000092900D976E04471062B00D186E0D478E9
:102D20002509290030319F2C00D96EE08171072BD5
:102D300000D17BE00F2121400C003034092966D8F6
:102D4000C471082B00D171E01479250929003031B4
:102D50009F2C5FD80172092B68D00F2121400C00F5
:102D60003034092958D844720A2B5FD05479250988
:102D7000290030319F2C52D881720B2B56D00F2155
:102D800021400C00303409294BD8C4720C2B4DD093
:102D900094792509290030319F2C00D9073101731E
:102DA0000D2B43D00F2121400C003034092901D9CB
:102DB00037310C0044730E2B38D0D1790C09220026
:102DC00030329F2900D9073282730F2B2ED00F2269
:102DD0000A4011003731092A01D830321100C1737D
:102DE000102B23D010300023037030BD07345AE776
:102DF00037310C0063E707316CE737310C0074E7BB
:102E000007317DE737310C0085E707318EE7373131
:102E10000C0095E707319DE737310C00A3E7073138
:102E2000AAE737310C00C4720C2BB1D1C018DAE715
:102E30001423002010B588B004000D22002168463C
:102E4000FFF7FAF90D22002104A8FFF7F5F94B234B
:102E50006A466846137004A90D2202F035F8152160
:102E6000082220006944FFF7EDF908B010BDC04604
:102E7000F8B500F043F90C23194DFF22AB6705208C
:102E80001849FEF7B3FB184C402200212000FFF741
:102E9000D3F94027002301262121144A6670278395
:102EA000A260136063545F31618445396354104AF2
:102EB00010496360E2602787A1620B606362E2628F
:102EC00002F032F880239B052E64EB6490230A4ABB
:102ED0000120EA508022094B5202DA64F8BDC04654
:102EE00000001150ED050020C81E00208400105085
:102EF000000110508000105010D00100002011502F
:102F000010B501210520FEF70FFB10BD10B5002202
:102F10000021024800F012F910BDC046E81E002052
:102F2000044B1970002904D080219023024A8902A1
:102F3000D15070473E230020002011500B785B06D3
:102F400002D14B78052B00D070478A78014B1A606C
:102F5000FAE7C04600001150F0B5C646C87800B583
:102F60008007830F1800012B60D08F780A794B7986
:102F70000F213940FC091B024E001343334D321917
:102F80005201AA18977001276740577000275B0508
:102F90005B0DD7701383D076B846CA00012C32D0AF
:102FA0002B4FBC468F016244BC46AC446746BA60B6
:102FB00047461760002932D0264AC900904662462B
:102FC000414451603F223F339343022837D0224986
:102FD00037190A687F01D3180B602049EF19FA608E
:102FE0008B422ED836197601AD19EB7E1C499B0613
:102FF0004A4013438022120613436A68136001207B
:1030000080BCB846F0BD174FBC468F016244BC4639
:10301000AC446746BA6247461760002908D10023CE
:1030200064012C196360104BE360E8E70020E7E7D8
:103030000B4AC9009046624641445162C2E75B00B8
:10304000C5E7FEF7D7FEFA68CCE7C046C81E0020E9
:103050008400105004001050E0220020FF0F105098
:1030600000001050800010500001105010B501F009
:103070005BFF10BD10B50F200C0020404000E4099C
:10308000110000191A00034B4001C01800F056F857
:10309000012010BDC81E00200F23180010B50840E5
:1030A000CA090B4203D107490D3B9B1A8B664000AE
:1030B00080188022044B40010021C018120101F049
:1030C0004BFF10BD00201150C81E00200F2213001E
:1030D00010B50B400A4200D110BDC9095B005B1856
:1030E00004485B01C018002300220349C37001F0AB
:1030F00033FFF1E7C81E0020FFF7FFFF80220A4BD5
:10310000520410B51A60094B09491A6010000B6887
:103110009843FBD18022002152010648FFF78CF82A
:103120000922054B5A6710BD00E0004000F0004046
:1031300008C000400000105000001150002310B5DE
:10314000C3820133828283760161040001F0CCFEE8
:10315000002804D080219023074A8902D150200002
:1031600001F002FF002802D00123237710BD2000C8
:1031700001F0EAFEFAE7C04600201150F8B5CE464D
:10318000474680B51E4E05003278FE2A19D024210C
:1031900089461C490024002388461B4F9A4225D9A2
:1031A000E2003B68121992009B18002B1AD0DB68D2
:1031B0002800984732780134911CC9B2E3B2994291
:1031C000ECD8124C542200212000FFF735F81022D1
:1031D000FF21201DFFF730F820002022FF211430AE
:1031E000FFF72AF8C0BCB946B046F8BD9B1ADBB25F
:1031F000012BF7D84A465B4213404344D7E7C04609
:103200003D23002000540010B01500206817002056
:103210007047C0467047C046002070470020704786
:103220007047C0467047C0467047C0467047C046AA
:10323000024B5878431E9841C0B27047681700206F
:10324000024B18784007C00F7047C046681700202F
:10325000F0B545464E46DE465746E0B5354B0600CE
:1032600098461B780D0083B0FF2B4DD1002953D019
:10327000002154223048FEF7DFFF00222F4B304858
:103280001A70FEF75BFB2F4C2000FEF749FB2E4B1C
:103290001C602E4C2000143CFEF750FB200001F077
:1032A00099FD2B4B1C602B4B18009946FFF77EFABB
:1032B000294B18609A464B461B78FD2B2CD82422AC
:1032C000002700249346254A0192A34226D953465B
:1032D0001B68DB19002B1FD05B68002B1CD09847A4
:1032E0004B461B7801349A1CE4B2D2B22437A24276
:1032F000EBD84346290030001E70FFF7B9FD0028C7
:103300000AD03000FFF7FCFD012003B0F0BCBB4643
:10331000B246A946A046F0BD0020F6E7E31ADBB2AC
:10332000012BF9D85A465B421340019A94466344F4
:10333000D2E7C04614120020681700203F23002067
:103340008418002060170020BC1700200C120020F9
:10335000C01700203D230020B015002000540010AD
:10336000F0B5DE4657464E464546E0B5BF4B8FB0FA
:103370009B461B78FF2B00D1CAE0BD4BBD4D01938E
:10338000BD4B0BAC02930095009B1E687269EFF376
:10339000108172B61368002BFCD0BFF35F8FB16150
:1033A0003000210001F046FB7269B369BFF35F8F03
:1033B0000021116083F31088002800D1A8E0637811
:1033C000082BE1D8019A9B00D3589F466368002BD5
:1033D000DAD0A0689847D7E70F222179A64B0A4098
:1033E0005600C8099B191B181800012730300679B0
:1033F000BE43067106790337BE430671002A00D129
:103400008DE09E4A1B7D127893427DD29C4AD80063
:103410001668C3189B00F618002E79D0A36862794D
:103420002078B669B047AFE7964A1378002B6FD083
:103430001378013BDBB213701378002BA4D1012267
:103440008D4F01213B78042013433B703423FA5CF9
:103450008A43FA54FA5C8243FA540133FA5C8A4391
:10346000FA54FA5C8243FA54237800209A4600F01A
:103470009DFB602223791A40602A00D174E0402A23
:1034800000D1CAE0DB06DB0E012B00D196E0022B57
:1034900051D0002B68D1202A00D176E1002A63D1D7
:1034A0006379092B60D8784A9B00D3589F46029BCA
:1034B0001B78DB0700D467E7FFF7B8FE64E7029BE1
:1034C000DB78DB0700D45FE76068FFF7A3FE5BE70C
:1034D000694A1378DB0700D456E710780007C00F5D
:1034E000FFF7A2FE50E72078FFF748FE00F054FBFC
:1034F000614B22799A7047E72078FFF73FFE00F092
:103500004BFBFFF78FFE3FE79B1ADBB2012B0CD979
:103510000FB0F0BCBB46B246A946A046F0BDA368BA
:103520006279207800F056FB2EE724265B421E408D
:10353000564BF61872E7217A0F26CB0998460E40B3
:1035400076004E48BB1943441B7D0078834214D259
:103550004B48DD000068EB1881469B009944002A27
:1035600013D04B46002B76D120780021FFF794FD35
:1035700080212078FFF790FD06E71B1ADBB2012BB4
:1035800061D9002AF0D100239946627902251300FF
:103590000392AB43012B00D17CE0002AE4D1BB199C
:1035A000434430331B790AAA9B07DB0F0232138096
:1035B000504602230CA900F09BFAE5E6237A0F2B74
:1035C000D2D82E4AFB181B791278934231D22C4A5A
:1035D000D9001668CB189B00F618002EC4D070696D
:1035E00000F0E4FA0121504673690CAA98470028BC
:1035F00000D0C9E66022160023791E401A42B3D1DA
:1036000000F0D4FA63790A2B00D1E5E00B2BABD1A3
:1036100050460CA900F056FAB6E61D4800F0C6FA6E
:10362000012150460CAAFFF7A7F8002800D0ABE60E
:103630009AE79B1ADBB2012B96D824265B421E40E8
:10364000124BF618CBE724205B42184081460F4B03
:103650009944002A99D04B46586900F0A7FA4B4686
:10366000012150465B690CAA9847DEE7141200203E
:1036700054530010C0170020681700203D2300207D
:10368000B01500203F230020785300100054001094
:1036900079270010E388002B12D15B461878039B32
:1036A000012B00D1A1E0FFF7F7FC0221BB19434435
:1036B00030331A790A4301211A711A790A431A71AF
:1036C0004B46002B00D15FE6586900F06FFA4B467D
:1036D00001215B690CAA50469847002000F066FA69
:1036E0003523FB5CDB0700D54EE691E77B780AAA21
:1036F00002321370504601230CA900F0F9F943E699
:10370000E3881A0AD8B20F2A00D92DE7AE499300F0
:10371000CB589F46A6797B789E4200D178E77B788C
:10372000002B00D0E0E07E70002E6BD1FFF77AFD19
:103730006EE70CA800F040FA5046A179FFF7E6FBCF
:1037400002223B7813433B701EE6E388012B00D036
:103750000AE708223B7813433B7059E7E388012BC3
:1037600000D001E708223B78504693430CA93B70F8
:1037700000F0A8F908E6022039780AAB9A1C8B06FB
:103780008908DB0F01400B4311E7237A0F2B00D987
:10379000EAE68E4AFB181B791278934211D28C4AC2
:1037A000D9001668CB189B00F618002E00D1DBE676
:1037B000706900F0FBF90121504673690CAA984723
:1037C00033E79B1ADBB2012B00D9CDE624265B42FE
:1037D0001E40804BF618EBE70AAB9A1C50460123BB
:1037E0000CA9167000F084F9CEE5FFF76FFCBB1949
:1037F000434430331A790399AA431A711A798A43D8
:103800001A715DE7701EC0B2FFF7F8F900285AD0B0
:1038100043780693022B56D10121C279B946931100
:1038200052110B400A4012015B0113433A782F31C9
:103830008A4313433B700923984680444646C37825
:1038400082781B021343C3180493604B0393614BAC
:1038500007935F4B0893049BB34242D973780122CC
:103860000B2B02D13378F278F6187378042B29D118
:10387000049B9B1B9BB20593039B1B78FE2B21D0C3
:103880000021B04600270E000992BB421ED9089ABB
:10389000F30015689B199B00ED18002D12D04146CE
:1038A00050462B69059A98478446082802D9059AFC
:1038B000824226D2039B01361B78F7B29A1CD2B201
:1038C000BA42E2D84F4600237B704DE6FB1ADBB2CA
:1038D000012BF7D85D4224231D40079B9C4665447D
:1038E000DDE7FFF79DFC93E600215046FFF718FB4C
:1038F0005046FFF7BBFBBD785046FFF73FFCBD705D
:1039000011E7099A4646012A2FD000214D4609E0C9
:10391000B378CB18DBB2EB181879FF2823D101312B
:103920001F71C9B29142F3D1A94665463B003100EF
:103930002A00294800F020FEAC46039B66441B7811
:103940000233DBB2BB4286D8BCE7FEF711FF021E92
:1039500000D109E6D37891781B020B4350460CA99D
:1039600000F0C6F861E62F00ADE71C4B29699942CB
:10397000CBD1069AC9E7FFF74FFC021E00D1F3E551
:10398000504613780CA900F0B3F84EE62189FFF7F2
:1039900039F9021EF4D1E7E5022A0FD0FFF73EFC09
:1039A000021ED7D1E0E5FFF725F9021E00D1DBE5C5
:1039B000122350460CA900F09BF836E6FFF71EF9DB
:1039C000021EC7D1D0E5C046A05300103D23002001
:1039D000B0150020005400107C1700204D3E001050
:1039E00070B50C00074B00221D78074B200099781A
:1039F00000F066FD002803D021002800FFF7ACFA94
:103A000070BDC04614120020681700200B000F2064
:103A100010B51840DB0934334000044AC018044B89
:103A20001168C01800F008FD10BDC046BC1700208A
:103A3000681700200B000F2010B51840DB09343345
:103A40004000044AC018044B1168C01800F01CFD67
:103A500010BDC046BC1700206817002070B50F24A9
:103A60000F480C4064000419CD09641930342079E2
:103A7000C00701D5002070BD0126257909483543CE
:103A800000782571FFF7F6FA0028F4D10122237996
:103A9000934323712379033293432371EAE7C046AA
:103AA00068170020141200200F22054B0A40520014
:103AB000C9099B185B1830331879C007C00F7047CD
:103AC0006817002070B5094C0600082220000D0080
:103AD000FEF7B8FB00238021E360A3602B78300061
:103AE000994300220023FFF7B9FF70BD481700205B
:103AF000F8B5CE4647469046254E80B58146082209
:103B000030000D001F00FEF79DFB4346B36000230D
:103B1000F381EC79AB7924021C43231CBC4200D90D
:103B20003B1C9FB2B381002C0DD0002F17D0424612
:103B3000002A2BD0402F1BD89FB233787F2B1CD864
:103B40000021144A0FE080212B7800229943484637
:103B50000023FFF783FFC0BCB946B046F8BD7F2302
:103B60000022317899433B004846FFF777FFF2E7A0
:103B700040239FB233787F2BE2D9064C3A0041466E
:103B80002000FEF75FFB80212200ECE70020E2E747
:103B9000481700200817002010B514220021024801
:103BA000FEF74AFB10BDC04648170020014B1861C4
:103BB0007047C0464817002010B5054C0100082288
:103BC0002000FEF73FFB0023A360E36010BDC0466A
:103BD0004817002070B5384C1D0023780600DA091C
:103BE000C9098A4210D00020002D00D070BD2100EC
:103BF0003000FFF7A3F92369002B03D02200032133
:103C0000300098470120F1E77F2B06D8A0680028F4
:103C100034D02A002949FEF715FBE289A168521920
:103C2000E38892B24919E281A160934214D03F2DFA
:103C300012D9A389981A051C80B240282AD8207866
:103C4000ADB27F2828D800219A422FD01B4A2B00E2
:103C50003000FFF703FFC9E72369002B05D02200DE
:103C600002213000984700280AD0802123780022C2
:103C7000994330000023FFF7F1FEB7E70020B5E7D6
:103C800000213000FFF708FA30008021FFF704FA26
:103C90000120ABE74025D2E79A4209D0074C2A0021
:103CA0002000FEF7CFFA80212200D0E70022CEE7E5
:103CB00080210022CBE7C0464817002008170020CB
:103CC0007047C0467047C0467047C0467047C04600
:103CD0007047C0467047C04610B5002801D000208C
:103CE00010BDFFF7A5FA0400FFF7AAFA002CF6D0E2
:103CF0000028F4D1024B0130DB781840F0E7C046D1
:103D000034160020030010B50020002B02D1024819
:103D100000F064FE10BDC0466C160020030010B514
:103D20000020002B08D1054C2300303B18781300ED
:103D30000A00210000F0AEFD10BDC0466416002050
:103D4000030010B50020002B08D1054C23000C3BCC
:103D5000187813000A00210000F0C4FC10BDC04612
:103D600040160020030010B50020002B05D10349A8
:103D70000B000C3B187800F081FC10BD40160020B1
:103D8000030010B50020002B05D103490B000C3BAC
:103D9000187800F0FDFC10BD4016002070B5174CDF
:103DA00084B0D42200212000FEF746FAE1235B0212
:103DB0006360F8235B426381230040252000104E9E
:103DC000943302960093002200230021039501956D
:103DD000303000F0EBFB20000A4B40361B785434A7
:103DE0005B0701220021DB0F0395029601950094E9
:103DF0000C3000F0DBFB04B070BDC0463416002070
:103E0000B41500201812002010B5054C200000F059
:103E100003FC2000243800F0FFFB012010BDC04649
:103E20006416002070B5074C00252000064B1430A6
:103E3000197825604907C90F00F0ECFF312365733D
:103E4000E55470BD3416002018120020F0B5574616
:103E5000DE464E464546E0B54B7907000C0083B080
:103E6000022B02D18B79022B07D0002003B0F0BCCB
:103E7000BB46B246A946A046F0BD534E2F33F35C75
:103E8000002B02D0737B002BEFD13770A3787370B7
:103E90002578A318651919006A7801938D4209D213
:103EA0002B78EB18994205D3242A03D11D006A7898
:103EB0008D42F5D3052A5BD0042A02D0281B80B29C
:103EC000D4E76B790A2BF9D12B79002B7AD0002219
:103ED0000199924603322B009046994245D91A78AF
:103EE00091469944494540D34B465B78052BBCD15C
:103EF0004B464246DB781A409346022AB5D14946E2
:103F00003800FFF76DFD0028AFD04B4619799A783D
:103F10005B791B020B432D495B058C465B0D6344AB
:103F200059424B41D109DBB201292ED031215846EB
:103F300072540139725C5B00824313437354244B07
:103F40001B78DB0732D53800224900F037FC002807
:103F500000D18AE753460133DBB29A462B795345A9
:103F60002ED94B4601999942B9D81D785D19A5E71C
:103F700029003800FFF734FD002800D175E7AB7841
:103F8000B3702B78ED186A7896E759467273327BD6
:103F90005B008A43134333730D4B1B7819420AD0DD
:103FA000310038000C3100F069FBD3E730003830C5
:103FB00000F010FFC7E73000143000F00BFFC9E736
:103FC0004B46D2E72B00D0E73416002000FEFFFF5F
:103FD0001812002064160020F8B56023140012782F
:103FE000050013400020202B07D1314E637927793B
:103FF00072781B023B439A4200D0F8BD6378222BB3
:1040000017D007D8202B34D0212BF6D101293AD054
:104010000120F2E7232BF0D101293CD00329F7D16D
:10402000E178A378090200201943FFF753FE01202D
:10403000E3E701292FD00329EAD1E378A2781B0214
:104040001343012215005C081D40F370194B144006
:104050001B785B0725D5012130006940C9B21430B7
:1040600000F0D8FE002022002900FFF731FE0120D9
:10407000C3E7012907D00329CAD10020311DFEF76B
:104080009BFB0120B9E70723210028000A4AFFF71C
:104090002FFD0120B1E721002800FFF713FD0120CB
:1040A000ABE730000021143000F0B4FEDAE7C04680
:1040B000341600201812002038160020F0B54F46A4
:1040C0004646D646C0B51F003123344C8046E35CDB
:1040D0000D008B420DD0637B8B4247D0A3788B427F
:1040E00001D1002B1AD10020E0BCBA46B146A84647
:1040F000F0BDA38F002B49D1E17AFF2913D14023D2
:10410000E25A0233E35A9A422CD1254E40463100FE
:10411000303E00F053FB737BAB4227D0A378AB4219
:104120001BD00120E0E7002FE9D040239A4602335C
:104130000026994603E00136B742E0D0E17A636B8E
:104140009B5D8B42F7D15346E25A4B46E35A9A4263
:10415000F1D00020FFF7B6FDEDE70020FFF7B6FD38
:104160000120C1E70020FFF7ABFDCEE70020FFF7FD
:10417000ABFD0C4E4046310000F080FA0028CDD156
:104180003A003100404600F049FAC7E72000616B71
:10419000BAB2383000F062FDAEE7C04634160020F7
:1041A00064160020401600207047C0467047C04685
:1041B0009322F0B5134C85B0002120009200FEF749
:1041C0003BF823002000802640270F4D4D3376001A
:1041D000FF3329300295009300220023002103972A
:1041E0000196FF3000F0E2F94035201D283400230D
:1041F00001220021039702950196009400F0D6F960
:1042000005B0F0BD0C1900208C18002010B5054C2D
:10421000200000F001FA20002538FF3800F0FCF9FA
:10422000012010BD341A002070B5084C0025200074
:104230003130FF30257000F0CDFD20002A230C30F6
:10424000FF33E55400F0C6FD657170BD0C19002008
:10425000F0B5C64600B54B7906000C00FF2B46D1E1
:104260003E4B98462A234146FF33CB5C002B3ED180
:104270004B79002B3BD12778A378A518E7190B7051
:10428000BD4211D93B78FB189D420DD37A78042AA0
:104290000AD00B2A08D0052A2DD09D4205D91F002F
:1042A0003B78FB189D42F1D23B00181B80B21FE007
:1042B00041468B547B793A791B021343284A5B05AC
:1042C00094465B0D942163445A4253414246022076
:1042D0004900525C5B0082431343424653544146BB
:1042E00029313000FF3100F069FA002813D1002095
:1042F00080BCB846F0BD39003000FFF771FB0028E4
:10430000F5D0BB78DA09012A08D02A224146FF32CB
:10431000895C0029CCD03B78FB18BEE74246527935
:10432000002AF8D1424653717B793A791B02134334
:104330000B4A5B0594465B0D63445A425341424627
:10434000022112795B008A43134342463000111D5B
:10435000137100F093F93B78FB189EE70C190020CD
:1043600000FEFFFFF8B52A251D4CFF35655D0600F0
:104370001F008D4212D063798B4201D00020F8BD1E
:1043800039040020090C0434FFF710FF210030002D
:1043900000F074F900281CD00120F0E79FB29A23A6
:1043A0005B00E35A002B0AD13A0000200D49FFF7C9
:1043B000FBFE30000C4900F001FA0120DFE720008D
:1043C000962331305B003A00E158FF3000F046FCA4
:1043D000EAE73A002100300000F020F90120CEE7A2
:1043E0000C1900208C180020341A002000B503009E
:1043F00083B0002910D00020012B07D80A78002AAA
:1044000004D00C48C2540120012A01D003B000BDE1
:104410001800FEF71DFFF9E701236A46002001A9F5
:104420009380FEF715FF0028F0D00122014B1A708F
:10443000ECE7C0465C170020037870B5DB0704008A
:104440000E00DD0F002B17D103785B0701D5280084
:1044500070BD01213000494200F05EFD2378DB078A
:10446000DD0F002B0AD123785B0708D404222378C0
:1044700001251343237002E00025E8E70025300002
:1044800000F02AFDE3E7C04670B50C0001210600EC
:104490004942200000F040FD33785B07DD0F002B20
:1044A00004DB200000F018FD280070BD3378DB0726
:1044B00004D40422337893433370F2E70025F0E705
:1044C00050B54479037924021C43C37866059B07E1
:1044D000760D9B0F022B1DD0032B0CD00020012B3F
:1044E00008D102394B4259411F4B9C466144B142AD
:1044F0004041C0B250BD02394B1E99411B4B49424D
:1045000019408023DB009C4600206144B1424041B9
:10451000C0B2EFE7022912D0002A03D080239B000B
:104520009E4218D0202E10D8FF23DB001C4219D049
:104530000F4B083EB6B2F34001201840DAE70D4BAE
:10454000F01843425841C0B2D4E7300040384342EB
:104550005841C0B2CEE7C13BFF3B0371002343711A
:104560001000C7E70020C5E7FF03000040FCFFFF85
:104570000101000100FEFFFF8A1870B5914207D2C9
:104580000F264C78052C04D00C7809198A42F8D8EB
:1045900070BD34008D782C4064000419ED0963551A
:1045A0000C7809198A42ECD8F2E7C046F0B5C64645
:1045B00000B582B0150008AA40CA040017886A46F0
:1045C000928D012090460A0021780240814320000C
:1045D000114321703A00009331000123083000F0AC
:1045E000C7F9002E01D0002F08D10A9B012063607B
:1045F0004346638002B080BCB846F0BD26001C363E
:104600003000FDF78DF90023002D01D03300002686
:104610006361A661E9E7C04601207047022370B5D7
:104620000C00097805000B405842434111485B4299
:1046300003401148268A8446608A6344864206D134
:10464000002A04D01A4202D101260E4201D00020D5
:1046500070BD28006178FFF7D9F90028F7D02378DA
:104660001E42F4D10023002228006178FFF7F6F9FA
:10467000EEE7C04640FEFFFFFF010000F8B50D0069
:104680000835060028000C0000F0A8F9002803D027
:10469000012723781F4201D00020F8BD3000617847
:1046A000FFF7B4F90028F7D028006288616800F0AD
:1046B0000FFA237805001F4000280BD0002FEBD104
:1046C0000300626830006178FFF7C8F90028E3D082
:1046D0002800E2E7002FDFD130006178FFF7AAF968
:1046E000DAE7C046F0B5C64607000C0090461D004C
:1046F00000B5002B05D08B89002B23D10B78DB076D
:1047000004D50026300080BCB846F0BD4978FFF7DC
:104710007DF90028F5D06688AE4235D83200414692
:104720006068FDF78FFD2378DB07EAD4002261780B
:10473000002E00D062683800B3B2FFF78FF900286E
:10474000E0D1DEE7082341469846AAB20225A044FC
:10475000404600F083FA237806001D406B425D411D
:104760000A4B6D421D4080239B009C464046654499
:1047700000F034F9A84202D2A389AB42C2D2210090
:104780003800FFF77BFFBDE72E00C7E740FEFFFFC5
:1047900010B58B890C00002B0BD10B78DB0701D5F2
:1047A000002010BD4978FFF77FF90028F8D1608814
:1047B000F7E70800083000F027F9F2E7F8B5CE4631
:1047C000474680B58A8906000C000B78002A07D17D
:1047D00001251D4240D00020C0BCB946B046F8BDFE
:1047E0009B0733D42A4B40259946270008373800C9
:1047F00000F00AF98542EED80122237890461A4249
:10480000E9D130006178FFF701F90028E3D03800E2
:1048100000F0FAF8424623781A40854231D8002A3F
:10482000D9D14A46638802401D1C934200D9151C09
:10483000ADB200226178002D00D062682B003000FC
:10484000FFF70CF90028C6D02800C5E7FE23802515
:104850001B029946AD00C8E74978FFF7D7F8002852
:10486000B9D023781D42B6D1638800226178002B2D
:1048700000D062683000FFF7F1F80028ABD0608804
:10488000AAE7002AA7D130006178FFF7D3F8A2E7A2
:10489000C0FF0000F0B50C00D6464F464646C0B5F6
:1048A00027000837110006009AB2380000F010F90E
:1048B000A28905002378002A08D101271F423DD094
:1048C0002800E0BCBA46B146A846F0BD9B072ED4EE
:1048D000264B9A4640239846380000F095F840450C
:1048E000EED30122237891461A42E9D13000617853
:1048F000FFF78CF80028E3D0380000F085F84A462E
:1049000023781A40804529D8002AD9D15346618896
:104910001840031C884200D90B1C9BB2002261780E
:10492000002B00D062683000FFF798F8C8E7FE233C
:104930001B029A4680239B009846CDE730006178A1
:10494000FFF764F80028BBD023781F42B8D16388F2
:1049500000226178002BE6D06268E4E7002AAFD13C
:1049600030006178FFF766F8AAE7C046C0FF000094
:10497000F0B5C64600B504006846057E802088462E
:1049800017001E000002824226D8E068002803D0EB
:104990000121494200F0C0FA2069002803D001211A
:1049A000494200F0B9FA4346236073045B0CED03FF
:1049B0001D430023E0686381A780E58023810028F0
:1049C00001D000F089FA2069002801D000F084FAB3
:1049D000012080BCB846F0BD0020FAE710B504897C
:1049E00041898288A3B288B28C4207D31B1A9BB23A
:1049F000101C9A4200D9181C80B210BD5100091A2F
:104A00005B189BB2F4E7C04610B5048941898288DF
:104A1000A3B288B28C4207D31B1A9BB200209A42E1
:104A200001D9D21A90B210BD5100091A5B189BB27D
:104A3000F4E7C04670B5040000690E00002803D0FA
:104A40000121494200F068FA25896089A288A9B24B
:104A500083B2854232D3CD1AADB2002D28D0AA42FE
:104A600008D291422FD3891A8BB263819A4203D81C
:104A70009B1A9BB29A42FBD9E28821685204520CDD
:104A800053433000C918FDF7DDFB63890125591C2C
:104A900089B2A2888B420DD900215200891A89B2AD
:104AA00020696181002801D000F016FA280070BD4D
:104AB000618989B252009142F2DBEFE75500ED1AAD
:104AC0004D19ADB2C9E789188BB26381CEE7C046F4
:104AD000F0B546464F46D646C0B506000069894641
:104AE0009046002803D00121494200F015FA31898F
:104AF0007289B5888BB294B2914254D31F1BBFB256
:104B0000002F4AD0BD4205D2AB4251D25B199CB2B4
:104B10002F0074814346B8453DD89FB2A54203D8C3
:104B2000641BA4B2A542FBD9F28831685204520C2E
:104B3000904662432B1B9BB2891842469F4225D95F
:104B400053439BB21A0048469A46FDF77BFB434607
:104B500048467D1B64195C4331685044A2B2FDF79E
:104B600071FB7189B588CB199BB26A00994216D93D
:104B70009B1A9BB230697381002801D000F0ACF918
:104B80003800E0BCBA46B146A846F0BD48467A4374
:104B9000FDF758FBE5E73B1CBFE773899BB26A0052
:104BA0009342E7DBE4E76F003F1BDF19BFB2A7E7E3
:104BB0005B1B9CB2ACE7C046F8B50400C0680E00B1
:104BC000002803D00121494200F0A6F92589208957
:104BD0006189A288ADB283B28FB2884229D3DB1B30
:104BE0009BB29A4209D8E779FF0906D1E06800280C
:104BF00001D000F071F93800F8BD2B0095421DD3AB
:104C00009B1A9BB29342FBD2E28820685204520C5A
:104C100053433100C018FDF715FB6B1C9BB2A288F3
:104C20009D4217D9002352009B1A9BB20127238172
:104C3000DCE75100C91B5B189BB2D2E7E288206811
:104C40005204520C53433100C018FDF7FBFA0135F2
:104C5000A288ABB252009342E8DBE5E7F0B54E46DE
:104C60005746DE464546E0B589460600170083B044
:104C7000002A67D0C068002803D00121494200F013
:104C80004BF93389F2799BB298467389B5889BB208
:104C9000D20940D198455ED26A00D31A43449BB2F0
:104CA000AB425DD2EB1A1A1C9BB2BB4200D93A1C34
:104CB00097B27B1B9BB20193F3885B045B0C9A4613
:104CC0004346DB199BB29B464446A84503D3641B6D
:104CD000A4B2AC42FBD25346634330682D1BADB245
:104CE000C018BD424BD3524649467A43FDF7AAFA53
:104CF000B3885B00D84501D89B4503DB5A46D31ADD
:104D00009BB29B465B463D003381F06800281AD079
:104D100000F0E2F817E0F2885204520C9246AF42DB
:104D200020D298454DD34246D21A92B26900781BE0
:104D300080B2D21901908A4233DA4346FB189BB203
:104D40009B46C1E70025280003B0F0BCBB46B24635
:104D5000A946A046F0BD4246D31A9BB2AB42A1D3AE
:104D60000025D2E7002DD0D07F1B574398465A1913
:104D7000002392B2B94493462F000193A4E753460F
:104D80005D43ADB22A004946FDF75CFA019B29005C
:104D9000E21853465A43306892B24944FDF752FA3A
:104DA000A6E75A1992B29346D21B92B2904693420A
:104DB0000CD94346591A8BB29846FB189BB29B46B6
:104DC00082E76900CA1A424492B2B0E7914200DD1C
:104DD0007AE7EEE710B50400C068002803D001218F
:104DE000494200F099F82069002803D00121494286
:104DF00000F092F80023E06863812381002801D04D
:104E000000F06AF82069002801D000F065F8012060
:104E100010BDC046C37970B5DB0904000D008B429C
:104E20001DD0C068002803D00121494200F074F869
:104E30002069002803D00121494200F06DF87F234A
:104E4000E279ED011340E0682B43E371002801D0C3
:104E500000F042F82069002801D000F03DF8012060
:104E600070BDC04610B583070AD00300032102E0DD
:104E700001330B4205D01A78002AF9D1181A10BD57
:104E8000030019680C4A0D4C8A188A4322420FD13C
:104E90005968094A04338A188A43224208D159685A
:104EA000054A04338A188A432242F1D000E00133D4
:104EB0001A78002AFBD1E1E7FFFEFEFE80808080A9
:104EC000F8B5C0460000000001B40248844601BCA9
:104ED000604700BFA503002001B40248844601BC1E
:104EE000604700BFC902002001B40248844601BCEB
:104EF000604700BFD90C002001B40248844601BCC1
:104F0000604700BFC510002001B40248844601BCC0
:104F1000604700BF6501002001B40248844601BC1F
:104F2000604700BF3D02002001B40248844601BC36
:104F3000604700BFE104002001B40248844601BC80
:104F4000604700BFA501002001B40248844601BCAF
:104F5000604700BF910D002001B40248844601BCA7
:104F6000604700BF410D002001B40248844601BCE7
:104F7000604700BF010D0020291E0010551E0010C3
:104F800039200010292200109520001099210010CE
:104F9000611F0010711E0010911E0010A51E001050
:104FA000D1180010AD1E00107D100010F11D001072
:0C4FB000051500107D2C0010B10200104F
:104FBC005250323034305F4932435F414441505497
:104FCC0045525F56310000000A2A2A2A2050414ED1
:104FDC004943202A2A2A0A000A0000004E6F207337
:104FEC0070696E6C6F636B732061726520617661A2
:104FFC00696C61626C65000048617264776172650E
:10500C0020616C61726D20256420616C7265616435
:10501C007920636C61696D65640000004E6F2075CA
:10502C0073657220495251732061726520617661FB
:10503C00696C61626C650000486172642061737315
:10504C006572740052656C6561736500626F6F7494
:10505C00325F77323571303830000000302E31003D
:10506C00322E322E300000007069636F0000000099
:10507C007069636F5F6932635F61646170746F72D2
:10508C005F757365723100004D61722020392032DA
:10509C003032360055534220737464696E202F20D1
:1050AC007374646F7574000058697A005250323012
:1050BC0034302049324320416461707465720000C1
:1050CC00426F617264204344430000005265736573
:1050DC0074000000556E68616E646C656420495202
:1050EC005120307825780A00657020253032582000
:1050FC0077617320616C7265616479206176616996
:10510C006C61626C6500000043616E277420636FF4
:10511C006E74696E75652078666572206F6E206995
:10512C006E61637469766520657020253032580095
:10513C00C403001022040010660400100E050010B9
:10514C00B204001056030010D00300105A070010D0
:10515C001A070010E00700103A070010880700102B
:10516C00AC070010BC07001006005250D3F075427B
:10517C005050001006005250E182887F58500010A9
:10518C00060052503ABCA91168500010060052504B
:10519C00ABB360536C50001006005250BBFF3CB6D2
:1051AC007450001006005250861C03027C500010F4
:1051BC00060052505422A29D9450001005005250EB
:1051CC00DE65F468D06500100D0A000000000000D8
:1051DC00E126001000000000E5260010F12600106A
:1051EC001D2700101927001000000000000000000F
:1051FC000A00000000000306A600080002000200DE
:10520C009C001400030057494E5553420000000007
:10521C000000000000008000040001002800440091
:10522C006500760069006300650049006E0074003B
:10523C006500720066006100630065004700550060
:10524C004900440000004E007B0062006300370000
:10525C00330039003800630031002D003700330073
:10526C00630064002D0034006300620037002D00E1
:10527C0039003800620038002D003900310033004D
:10528C006100380066006300610037006200660050
:10529C0036007D0000000000050F2100011C1005E8
:1052AC0000DF60DDD88945C74C9CD2659D9E648A21
:1052BC009F00000306A600010000000006005250EB
:1052CC0053B4F4A1A050001000000000B450001022
:1052DC00B85000102C230020CC500010D8500010D7
:1052EC0009025400030100807D080B000202020039
:1052FC00000904000001020200040524002001053D
:10530C00240100010424020605240600010705817E
:10531C000308000109040100020A0000000705024D
:10532C000240000007058202400000090402000050
:10533C00FF00010512011002EF0201408A2E3A1201
:10534C00000101020301000088330010E634001054
:10535C00F8340010BE340010D0340010AE340010FD
:10536C0028340010D8330010CC33001076370010DE
:10537C005C370010683500104A3700106835001093
:10538C00323700100037001068350010EC36001072
:10539C001437001068350010A63900109839001029
:1053AC008C39001068350010683500107639001003
:1053BC0098390010683500106835001068350010F9
:1053CC00683500106835001068350010683500101D
:1053DC004A390010740E0020740E0020560E002066
:1053EC002E0F0020880F00209C0F0020B00F0020F3
:1053FC00C00E0020000000009D3D0010093E001072
:10540C00253E00104D3E0010D93F0010BD4000104D
:10541C00000000000000000000000000B14100107E
:10542C000D42001029420010514200107927001043
:0C543C00654300100000000000000000AC
:1054480074510010805100108C51001098510010B8
:10545800A4510010B0510010BC510010C8510010E8
:04546800C852001016
:10546C00F0B5C64600B5EFF305831E00273E272B8B
:10547C0039D0214F3D68EC6A002C31D0802280233A
:10548C00D2009B002240234061062ED5696D002A74
:10549C0000D06A6E002B2CD1184BF200991888465C
:1054AC000979002906D0D3580221380098470023E7
:1054BC0042461371630708D50120104BF20099186E
:1054CC000871D358002138009847A40608D501214B
:1054DC002B6D0A4BF6009A193800F3581171984746
:1054EC0080BCB846F0BD064FC4E7002AD1D1002BD2
:1054FC00E0D02B6ED0E7C0464C110020C822002013
:10550C005411002003000068EFF3108C72B602688F
:10551C00002AFCD0BFF35F8F04229A56002A0BDBC3
:10552C00002900D00A6000201B68BFF35F8F0022A7
:10553C001A608CF310887047D02212061268012072
:10554C001A71F1E7F0B5C646150000B504001E004F
:10555C000268EFF3108172B61368002BFCD0BFF316
:10556C005F8F0423E3562268002B2BDBBFF35F8F86
:10557C000020106081F31088D022120612780027C8
:10558C0052B290469A420ED1002080BCB846F0BD73
:10559C00BFF35F8F176081F310882800310000F093
:1055AC0063FF0028F0D12268EFF3108172B6136804
:1055BC00002BFCD0BFF35F8F237922687F2BE7D9B8
:1055CC00434602E0D0231B061B682371BFF35F8F99
:1055DC000023136081F310880120D6E7F0B5C6468E
:1055EC0000B50D00040000F06FFFFA2206000F005A
:1055FC00002328000021920000F056FF36184F417E
:10560C00002F02DA0126174F7642D0231B061B68A7
:10561C00002598460AE0BFF35F8F156081F3108870
:10562C003000390000F020FF002818D12268EFF379
:10563C00108172B61368002BFCD0BFF35F8F2379F7
:10564C0022687F2BE7D943462371BFF35F8F00237A
:10565C00136081F31088012080BCB846F0BD002097
:10566C00FAE7C046FFFFFF7F0268EFF3108172B6C6
:10567C001368002BFCD0BFF35F8FFF23037103680B
:10568C00BFF35F8F00221A6081F3108840BF704710
:10569C0010B5084C2378002B0AD180230648074903
:1056AC005B051A68C25004338B42FAD10123237074
:1056BC0010BDC04640230020581B001000010010F4
:1056CC0010B5014B984710BD591B0020064B5A686A
:1056DC0002609A684260DA6882601A69C2605A692C
:1056EC0002619B6943617047000002400268064BEF
:1056FC005A6042689A608268DA60C2681A6102690C
:10570C005A6142699A61704700000240034B1A6863
:10571C00C0239B009343024A136070470C800140E6
:10572C000C900140054B1A6880239B005340C0220B
:10573C0092001340024A13607047C0460C8001402F
:10574C000C9001400023F0B5DE4657464E464546C8
:10575C009A46E0B589B001900E00988A45491B8B9A
:10576C0014009847534681464349988A1B8B9847A7
:10577C00534642490500988A1B8B98478046FFF791
:10578C0087FF02A8FFF7A2FFC847A847FFF7CAFF89
:10579C00251E22D00823C0219C46022049056246C2
:1057AC008B6A1A4018423FD0631B002D2FD1002A60
:1057BC0011D1002C11D0C0235B059B4602239A46C5
:1057CC00063399465B464A4657469B6A1A401F4227
:1057DC0042D0002AF6D0002C30D1FFF797FFC047FB
:1057EC00FFF76EFF02A8FFF781FF09B0F0BCBB46C4
:1057FC00B246A946A046F0BD002C2FD1C0225205BE
:10580C00926A914608224F463A40BF072DD50D2B80
:10581C001BD9002AF0D1C0225205926A9146082267
:10582C004F463A40BF07F2D4002A04D12B00234341
:10583C00002BB4D1D1E72B00002CF9D00B6E013C1E
:10584C003370230001362B43F2E7019F013D3B7877
:10585C0001370B660197E7E70025E5E7C0235B05F9
:10586C001B6E013C3370013699E72B00002ADFD107
:10587C00DCE7C0464946000045580000464300009E
:10588C000022154B10B59A60DA601A615A619A6160
:10589C00DA611A625A629A62DA621A635A639A631A
:1058AC00DA631A645A649A64DA641A655A659A65FA
:1058BC00DA651A665A669A66DA661A675A679A67DA
:1058CC00DA67F03292000021044800F0D5FD044B59
:1058DC00044A1A6010BDC04600001050081F00207A
:1058EC00E022002080011050F0B557464E46454648
:1058FC00DE46E0B5224B00259F6D012687B0002FB8
:10590C0023D0204B9B4601239A461F4B994601E01E
:10591C00202D1AD032002C000135B0463A40EDB2A1
:10592C007600002AF4D05B4642469A6553466408DA
:10593C0064002B40E41864014C44200000F02CFC63
:10594C00002809D143469F43E2D107B0F0BCBB46C7
:10595C00B246A946A046F0BDE38A2000019300F0B0
:10596C00B9FBA37803A80371019BE0228360002399
:10597C00D20001210280437100F02EFCE2E7C04608
:10598C000000115000301150C81E00209823F0B5B3
:10599C004746D646C64A80B5D55880232F009B0271
:1059AC00102485B01F401D4274D0C24BC24C9A6A61
:1059BC00C24B00261A603B23E35C022B00D104E1AE
:1059CC007B23E35C022B00D110E1BB23E35C022BB5
:1059DC0000D117E1FB23E35C022B00D1BCE13C239B
:1059EC00FF33E35C022B00D13DE17C23FF33E35C0E
:1059FC00022B00D1BCE1BC23FF33E35C022B00D1B2
:105A0C0018E1FC23FF33E35C022B00D1BDE1AC4B6E
:105A1C00E35C022B00D13FE1AA4BE35C022B00D1EB
:105A2C00BFE1A94BE35C022B00D129E1A74BE35C5E
:105A3C00022B00D10BE1A64BE35C022B00D1EDE075
:105A4C00A44BE35C022B00D15CE1A34BE35C022B87
:105A5C0000D1B1E1A14BE35C022B00D16AE1002E35
:105A6C0008D19F4B1B78002B04D180219D4A903389
:105A7C008902D150C02269468D4B92009B6C8027C5
:105A8C005B058A805B0D012101A8029300F0A4FB49
:105A9C00954CBF02EB0600D593E080235B021D42C0
:105AAC001ED01F4340239A463F3B9846824CA2444B
:105ABC004346E370A37E002B55D12034A245F7D189
:105ACC00C0236A46DB009380884A02AB03CA03C337
